{
  "_format": "hh-sol-artifact-1",
  "contractName": "ERC20Escrow",
  "sourceName": "contracts/mortgages.sol",
  "abi": [
    {
      "inputs": [
        {
          "internalType": "address",
          "name": "_settings",
          "type": "address"
        }
      ],
      "stateMutability": "nonpayable",
      "type": "constructor"
    },
    {
      "inputs": [
        {
          "internalType": "address",
          "name": "token",
          "type": "address"
        },
        {
          "internalType": "uint256",
          "name": "amount",
          "type": "uint256"
        },
        {
          "internalType": "uint256",
          "name": "downPaymentPercent",
          "type": "uint256"
        },
        {
          "internalType": "uint256",
          "name": "duration",
          "type": "uint256"
        }
      ],
      "name": "createLoan",
      "outputs": [
        {
          "internalType": "uint256",
          "name": "loanId",
          "type": "uint256"
        }
      ],
      "stateMutability": "nonpayable",
      "type": "function"
    },
    {
      "inputs": [
        {
          "internalType": "uint256",
          "name": "loanId",
          "type": "uint256"
        }
      ],
      "name": "defaultLoan",
      "outputs": [],
      "stateMutability": "nonpayable",
      "type": "function"
    },
    {
      "inputs": [
        {
          "internalType": "uint256",
          "name": "loanId",
          "type": "uint256"
        }
      ],
      "name": "extendLoan",
      "outputs": [],
      "stateMutability": "nonpayable",
      "type": "function"
    },
    {
      "inputs": [
        {
          "internalType": "uint256",
          "name": "loanId",
          "type": "uint256"
        }
      ],
      "name": "getTotalDue",
      "outputs": [
        {
          "internalType": "uint256",
          "name": "",
          "type": "uint256"
        }
      ],
      "stateMutability": "view",
      "type": "function"
    },
    {
      "inputs": [],
      "name": "loanCount",
      "outputs": [
        {
          "internalType": "uint256",
          "name": "",
          "type": "uint256"
        }
      ],
      "stateMutability": "view",
      "type": "function"
    },
    {
      "inputs": [
        {
          "internalType": "uint256",
          "name": "",
          "type": "uint256"
        }
      ],
      "name": "loans",
      "outputs": [
        {
          "internalType": "address",
          "name": "seller",
          "type": "address"
        },
        {
          "internalType": "address",
          "name": "buyer",
          "type": "address"
        },
        {
          "internalType": "address",
          "name": "token",
          "type": "address"
        },
        {
          "internalType": "uint256",
          "name": "amount",
          "type": "uint256"
        },
        {
          "internalType": "enum IMarketEscrow.LoanState",
          "name": "state",
          "type": "uint8"
        }
      ],
      "stateMutability": "view",
      "type": "function"
    },
    {
      "inputs": [
        {
          "internalType": "uint256",
          "name": "loanId",
          "type": "uint256"
        }
      ],
      "name": "makePayment",
      "outputs": [],
      "stateMutability": "payable",
      "type": "function"
    },
    {
      "inputs": [],
      "name": "settings",
      "outputs": [
        {
          "internalType": "contract MortgageSettings",
          "name": "",
          "type": "address"
        }
      ],
      "stateMutability": "view",
      "type": "function"
    },
    {
      "inputs": [
        {
          "internalType": "uint256",
          "name": "loanId",
          "type": "uint256"
        }
      ],
      "name": "startLoan",
      "outputs": [],
      "stateMutability": "payable",
      "type": "function"
    },
    {
      "inputs": [
        {
          "internalType": "uint256",
          "name": "",
          "type": "uint256"
        }
      ],
      "name": "terms",
      "outputs": [
        {
          "internalType": "uint256",
          "name": "downPayment",
          "type": "uint256"
        },
        {
          "internalType": "uint256",
          "name": "loanAmount",
          "type": "uint256"
        },
        {
          "internalType": "uint256",
          "name": "duration",
          "type": "uint256"
        },
        {
          "internalType": "uint256",
          "name": "startTime",
          "type": "uint256"
        },
        {
          "internalType": "uint256",
          "name": "totalRepaid",
          "type": "uint256"
        },
        {
          "internalType": "uint256",
          "name": "interestRate",
          "type": "uint256"
        },
        {
          "internalType": "uint8",
          "name": "extensions",
          "type": "uint8"
        }
      ],
      "stateMutability": "view",
      "type": "function"
    }
  ],
  "bytecode": "0x608060405234801561001057600080fd5b50604051611c1c380380611c1c833981810160405281019061003291906100dc565b80600360006101000a81548173ffffffffffffffffffffffffffffffffffffffff021916908373ffffffffffffffffffffffffffffffffffffffff16021790555050610109565b600080fd5b600073ffffffffffffffffffffffffffffffffffffffff82169050919050565b60006100a98261007e565b9050919050565b6100b98161009e565b81146100c457600080fd5b50565b6000815190506100d6816100b0565b92915050565b6000602082840312156100f2576100f1610079565b5b6000610100848285016100c7565b91505092915050565b611b04806101186000396000f3fe6080604052600436106100915760003560e01c8063b2f5db0111610059578063b2f5db011461017e578063c0aa0e8a1461019a578063ce63094d146101dd578063e06174e414610208578063e1ec3c681461023357610091565b80634f4cf428146100965780635114cb52146100d357806367bf61c4146100ef5780637ace2ac9146101185780639e8101c614610141575b600080fd5b3480156100a257600080fd5b506100bd60048036038101906100b891906114bc565b610274565b6040516100ca91906114f8565b60405180910390f35b6100ed60048036038101906100e891906114bc565b6102fc565b005b3480156100fb57600080fd5b50610116600480360381019061011191906114bc565b6104a8565b005b34801561012457600080fd5b5061013f600480360381019061013a91906114bc565b61080a565b005b34801561014d57600080fd5b5061016860048036038101906101639190611571565b610945565b60405161017591906114f8565b60405180910390f35b610198600480360381019061019391906114bc565b610f8f565b005b3480156101a657600080fd5b506101c160048036038101906101bc91906114bc565b61115a565b6040516101d497969594939291906115f4565b60405180910390f35b3480156101e957600080fd5b506101f26111a9565b6040516101ff91906114f8565b60405180910390f35b34801561021457600080fd5b5061021d6111af565b60405161022a91906116c2565b60405180910390f35b34801561023f57600080fd5b5061025a600480360381019061025591906114bc565b6111d5565b60405161026b959493929190611763565b60405180910390f35b60006102f5600160008481526020019081526020016000206040518060e00160405290816000820154815260200160018201548152602001600282015481526020016003820154815260200160048201548152602001600582015481526020016006820160009054906101000a900460ff1660ff1660ff1681525050611278565b9050919050565b6000806000838152602001908152602001600020905060006001600084815260200190815260200160002090506001600481111561033d5761033c6116ec565b5b8260040160009054906101000a900460ff166004811115610361576103606116ec565b5b14806103a257506002600481111561037c5761037b6116ec565b5b8260040160009054906101000a900460ff1660048111156103a05761039f6116ec565b5b145b6103ab57600080fd5b8160010160009054906101000a900473ffffffffffffffffffffffffffffffffffffffff1673ffffffffffffffffffffffffffffffffffffffff163373ffffffffffffffffffffffffffffffffffffffff161461040757600080fd5b3481600401600082825461041b91906117e5565b9250508190555061048f816040518060e00160405290816000820154815260200160018201548152602001600282015481526020016003820154815260200160048201548152602001600582015481526020016006820160009054906101000a900460ff1660ff1660ff1681525050611278565b8160040154106104a3576104a2836112e8565b5b505050565b600080600083815260200190815260200160002090506000600160008481526020019081526020016000209050806002015481600301546104e991906117e5565b42116104f457600080fd5b60016004811115610508576105076116ec565b5b8260040160009054906101000a900460ff16600481111561052c5761052b6116ec565b5b148061056d575060026004811115610547576105466116ec565b5b8260040160009054906101000a900460ff16600481111561056b5761056a6116ec565b5b145b61057657600080fd5b60006103e8600360009054906101000a900473ffffffffffffffffffffffffffffffffffffffff1673ffffffffffffffffffffffffffffffffffffffff16634fcc1def6040518163ffffffff1660e01b8152600401602060405180830381865afa1580156105e8573d6000803e3d6000fd5b505050506040513d601f19601f8201168201806040525081019061060c919061182e565b836000015461061b919061185b565b61062591906118cc565b905060048360040160006101000a81548160ff0219169083600481111561064f5761064e6116ec565b5b02179055508260020160009054906101000a900473ffffffffffffffffffffffffffffffffffffffff1673ffffffffffffffffffffffffffffffffffffffff1663a9059cbb8460000160009054906101000a900473ffffffffffffffffffffffffffffffffffffffff1685600301546040518363ffffffff1660e01b81526004016106db9291906118fd565b6020604051808303816000875af11580156106fa573d6000803e3d6000fd5b505050506040513d601f19601f8201168201806040525081019061071e919061195e565b508260000160009054906101000a900473ffffffffffffffffffffffffffffffffffffffff1673ffffffffffffffffffffffffffffffffffffffff166108fc829081150290604051600060405180830381858888f19350505050158015610789573d6000803e3d6000fd5b508260010160009054906101000a900473ffffffffffffffffffffffffffffffffffffffff1673ffffffffffffffffffffffffffffffffffffffff166108fc8284600401546107d8919061198b565b9081150290604051600060405180830381858888f19350505050158015610803573d6000803e3d6000fd5b5050505050565b6000806000838152602001908152602001600020905060006001600084815260200190815260200160002090506001600481111561084b5761084a6116ec565b5b8260040160009054906101000a900460ff16600481111561086f5761086e6116ec565b5b1461087957600080fd5b60038160060160009054906101000a900460ff1660ff161061089a57600080fd5b600281600101546108ab91906118cc565b816004015410156108bb57600080fd5b62278d008160020160008282546108d291906117e5565b9250508190555080600601600081819054906101000a900460ff16809291906108fa906119bf565b91906101000a81548160ff021916908360ff1602179055505060028260040160006101000a81548160ff0219169083600481111561093b5761093a6116ec565b5b0217905550505050565b6000600360009054906101000a900473ffffffffffffffffffffffffffffffffffffffff1673ffffffffffffffffffffffffffffffffffffffff16636a56b359336040518263ffffffff1660e01b81526004016109a291906119e8565b602060405180830381865afa1580156109bf573d6000803e3d6000fd5b505050506040513d601f19601f820116820180604052508101906109e3919061195e565b6109ec57600080fd5b600360009054906101000a900473ffffffffffffffffffffffffffffffffffffffff1673ffffffffffffffffffffffffffffffffffffffff1663a3b961a16040518163ffffffff1660e01b8152600401602060405180830381865afa158015610a59573d6000803e3d6000fd5b505050506040513d601f19601f82011682018060405250810190610a7d919061182e565b831015610a8957600080fd5b600360009054906101000a900473ffffffffffffffffffffffffffffffffffffffff1673ffffffffffffffffffffffffffffffffffffffff16638a8c737a6040518163ffffffff1660e01b8152600401602060405180830381865afa158015610af6573d6000803e3d6000fd5b505050506040513d601f19601f82011682018060405250810190610b1a919061182e565b831115610b2657600080fd5b600360009054906101000a900473ffffffffffffffffffffffffffffffffffffffff1673ffffffffffffffffffffffffffffffffffffffff1663b6a6d1776040518163ffffffff1660e01b8152600401602060405180830381865afa158015610b93573d6000803e3d6000fd5b505050506040513d601f19601f82011682018060405250810190610bb7919061182e565b821015610bc357600080fd5b600360009054906101000a900473ffffffffffffffffffffffffffffffffffffffff1673ffffffffffffffffffffffffffffffffffffffff1663b1724b466040518163ffffffff1660e01b8152600401602060405180830381865afa158015610c30573d6000803e3d6000fd5b505050506040513d601f19601f82011682018060405250810190610c54919061182e565b821115610c6057600080fd5b600260008154610c6f90611a03565b9190508190559050600060648486610c87919061185b565b610c9191906118cc565b90506040518060a001604052803273ffffffffffffffffffffffffffffffffffffffff168152602001600073ffffffffffffffffffffffffffffffffffffffff1681526020018773ffffffffffffffffffffffffffffffffffffffff16815260200186815260200160006004811115610d0d57610d0c6116ec565b5b81525060008084815260200190815260200160002060008201518160000160006101000a81548173ffffffffffffffffffffffffffffffffffffffff021916908373ffffffffffffffffffffffffffffffffffffffff16021790555060208201518160010160006101000a81548173ffffffffffffffffffffffffffffffffffffffff021916908373ffffffffffffffffffffffffffffffffffffffff16021790555060408201518160020160006101000a81548173ffffffffffffffffffffffffffffffffffffffff021916908373ffffffffffffffffffffffffffffffffffffffff1602179055506060820151816003015560808201518160040160006101000a81548160ff02191690836004811115610e2c57610e2b6116ec565b5b02179055509050506040518060e001604052808281526020018287610e51919061198b565b81526020018481526020016000815260200160008152602001600360009054906101000a900473ffffffffffffffffffffffffffffffffffffffff1673ffffffffffffffffffffffffffffffffffffffff16630c196a74866040518263ffffffff1660e01b8152600401610ec591906114f8565b602060405180830381865afa158015610ee2573d6000803e3d6000fd5b505050506040513d601f19601f82011682018060405250810190610f06919061182e565b8152602001600060ff1681525060016000848152602001908152602001600020600082015181600001556020820151816001015560408201518160020155606082015181600301556080820151816004015560a0820151816005015560c08201518160060160006101000a81548160ff021916908360ff16021790555090505050949350505050565b60008060008381526020019081526020016000209050600060016000848152602001908152602001600020905060006004811115610fd057610fcf6116ec565b5b8260040160009054906101000a900460ff166004811115610ff457610ff36116ec565b5b14610ffe57600080fd5b806000015434101561100f57600080fd5b338260010160006101000a81548173ffffffffffffffffffffffffffffffffffffffff021916908373ffffffffffffffffffffffffffffffffffffffff16021790555060018260040160006101000a81548160ff0219169083600481111561107a576110796116ec565b5b02179055504281600301819055508160020160009054906101000a900473ffffffffffffffffffffffffffffffffffffffff1673ffffffffffffffffffffffffffffffffffffffff166323b872dd8360000160009054906101000a900473ffffffffffffffffffffffffffffffffffffffff163085600301546040518463ffffffff1660e01b815260040161111193929190611a4b565b6020604051808303816000875af1158015611130573d6000803e3d6000fd5b505050506040513d601f19601f82011682018060405250810190611154919061195e565b50505050565b60016020528060005260406000206000915090508060000154908060010154908060020154908060030154908060040154908060050154908060060160009054906101000a900460ff16905087565b60025481565b600360009054906101000a900473ffffffffffffffffffffffffffffffffffffffff1681565b60006020528060005260406000206000915090508060000160009054906101000a900473ffffffffffffffffffffffffffffffffffffffff16908060010160009054906101000a900473ffffffffffffffffffffffffffffffffffffffff16908060020160009054906101000a900473ffffffffffffffffffffffffffffffffffffffff16908060030154908060040160009054906101000a900460ff16905085565b6000640757b12c0062278d008360c0015160ff166112969190611a91565b62ffffff1683604001516112aa91906117e5565b8360a0015184602001516112be919061185b565b6112c8919061185b565b6112d291906118cc565b82602001516112e191906117e5565b9050919050565b60008060008381526020019081526020016000209050600060016000848152602001908152602001600020905060038260040160006101000a81548160ff0219169083600481111561133d5761133c6116ec565b5b02179055508160020160009054906101000a900473ffffffffffffffffffffffffffffffffffffffff1673ffffffffffffffffffffffffffffffffffffffff1663a9059cbb8360010160009054906101000a900473ffffffffffffffffffffffffffffffffffffffff1684600301546040518363ffffffff1660e01b81526004016113c99291906118fd565b6020604051808303816000875af11580156113e8573d6000803e3d6000fd5b505050506040513d601f19601f8201168201806040525081019061140c919061195e565b508160000160009054906101000a900473ffffffffffffffffffffffffffffffffffffffff1673ffffffffffffffffffffffffffffffffffffffff166108fc82600401549081150290604051600060405180830381858888f1935050505015801561147b573d6000803e3d6000fd5b50505050565b600080fd5b6000819050919050565b61149981611486565b81146114a457600080fd5b50565b6000813590506114b681611490565b92915050565b6000602082840312156114d2576114d1611481565b5b60006114e0848285016114a7565b91505092915050565b6114f281611486565b82525050565b600060208201905061150d60008301846114e9565b92915050565b600073ffffffffffffffffffffffffffffffffffffffff82169050919050565b600061153e82611513565b9050919050565b61154e81611533565b811461155957600080fd5b50565b60008135905061156b81611545565b92915050565b6000806000806080858703121561158b5761158a611481565b5b60006115998782880161155c565b94505060206115aa878288016114a7565b93505060406115bb878288016114a7565b92505060606115cc878288016114a7565b91505092959194509250565b600060ff82169050919050565b6115ee816115d8565b82525050565b600060e082019050611609600083018a6114e9565b61161660208301896114e9565b61162360408301886114e9565b61163060608301876114e9565b61163d60808301866114e9565b61164a60a08301856114e9565b61165760c08301846115e5565b98975050505050505050565b6000819050919050565b600061168861168361167e84611513565b611663565b611513565b9050919050565b600061169a8261166d565b9050919050565b60006116ac8261168f565b9050919050565b6116bc816116a1565b82525050565b60006020820190506116d760008301846116b3565b92915050565b6116e681611533565b82525050565b7f4e487b7100000000000000000000000000000000000000000000000000000000600052602160045260246000fd5b6005811061172c5761172b6116ec565b5b50565b600081905061173d8261171b565b919050565b600061174d8261172f565b9050919050565b61175d81611742565b82525050565b600060a08201905061177860008301886116dd565b61178560208301876116dd565b61179260408301866116dd565b61179f60608301856114e9565b6117ac6080830184611754565b9695505050505050565b7f4e487b7100000000000000000000000000000000000000000000000000000000600052601160045260246000fd5b60006117f082611486565b91506117fb83611486565b9250828201905080821115611813576118126117b6565b5b92915050565b60008151905061182881611490565b92915050565b60006020828403121561184457611843611481565b5b600061185284828501611819565b91505092915050565b600061186682611486565b915061187183611486565b925082820261187f81611486565b91508282048414831517611896576118956117b6565b5b5092915050565b7f4e487b7100000000000000000000000000000000000000000000000000000000600052601260045260246000fd5b60006118d782611486565b91506118e283611486565b9250826118f2576118f161189d565b5b828204905092915050565b600060408201905061191260008301856116dd565b61191f60208301846114e9565b9392505050565b60008115159050919050565b61193b81611926565b811461194657600080fd5b50565b60008151905061195881611932565b92915050565b60006020828403121561197457611973611481565b5b600061198284828501611949565b91505092915050565b600061199682611486565b91506119a183611486565b92508282039050818111156119b9576119b86117b6565b5b92915050565b60006119ca826115d8565b915060ff82036119dd576119dc6117b6565b5b600182019050919050565b60006020820190506119fd60008301846116dd565b92915050565b6000611a0e82611486565b91507fffffffffffffffffffffffffffffffffffffffffffffffffffffffffffffffff8203611a4057611a3f6117b6565b5b600182019050919050565b6000606082019050611a6060008301866116dd565b611a6d60208301856116dd565b611a7a60408301846114e9565b949350505050565b600062ffffff82169050919050565b6000611a9c82611a82565b9150611aa783611a82565b9250828202611ab581611a82565b9150808214611ac757611ac66117b6565b5b509291505056fea26469706673582212209c277037e29ab525febd6a1d45af011cf3acce9c28355dcee46c8afd6da854b564736f6c634300081c0033",
  "linkReferences": {},
  "deployedLinkReferences": {}
}