{
  "_format": "hh-sol-artifact-1",
  "contractName": "ERC721Escrow",
  "sourceName": "contracts/mortgages.sol",
  "abi": [
    {
      "inputs": [
        {
          "internalType": "address",
          "name": "_settings",
          "type": "address"
        }
      ],
      "stateMutability": "nonpayable",
      "type": "constructor"
    },
    {
      "inputs": [
        {
          "internalType": "address",
          "name": "nft",
          "type": "address"
        },
        {
          "internalType": "uint256",
          "name": "tokenId",
          "type": "uint256"
        },
        {
          "internalType": "uint256",
          "name": "amount",
          "type": "uint256"
        },
        {
          "internalType": "uint256",
          "name": "downPaymentPercent",
          "type": "uint256"
        },
        {
          "internalType": "uint256",
          "name": "duration",
          "type": "uint256"
        }
      ],
      "name": "createLoan",
      "outputs": [
        {
          "internalType": "uint256",
          "name": "loanId",
          "type": "uint256"
        }
      ],
      "stateMutability": "nonpayable",
      "type": "function"
    },
    {
      "inputs": [
        {
          "internalType": "uint256",
          "name": "loanId",
          "type": "uint256"
        }
      ],
      "name": "defaultLoan",
      "outputs": [],
      "stateMutability": "nonpayable",
      "type": "function"
    },
    {
      "inputs": [
        {
          "internalType": "uint256",
          "name": "loanId",
          "type": "uint256"
        }
      ],
      "name": "extendLoan",
      "outputs": [],
      "stateMutability": "nonpayable",
      "type": "function"
    },
    {
      "inputs": [
        {
          "internalType": "uint256",
          "name": "loanId",
          "type": "uint256"
        }
      ],
      "name": "getTotalDue",
      "outputs": [
        {
          "internalType": "uint256",
          "name": "",
          "type": "uint256"
        }
      ],
      "stateMutability": "view",
      "type": "function"
    },
    {
      "inputs": [],
      "name": "loanCount",
      "outputs": [
        {
          "internalType": "uint256",
          "name": "",
          "type": "uint256"
        }
      ],
      "stateMutability": "view",
      "type": "function"
    },
    {
      "inputs": [
        {
          "internalType": "uint256",
          "name": "",
          "type": "uint256"
        }
      ],
      "name": "loans",
      "outputs": [
        {
          "internalType": "address",
          "name": "seller",
          "type": "address"
        },
        {
          "internalType": "address",
          "name": "buyer",
          "type": "address"
        },
        {
          "internalType": "address",
          "name": "nft",
          "type": "address"
        },
        {
          "internalType": "uint256",
          "name": "tokenId",
          "type": "uint256"
        },
        {
          "internalType": "uint256",
          "name": "amount",
          "type": "uint256"
        },
        {
          "internalType": "enum IMarketEscrow.LoanState",
          "name": "state",
          "type": "uint8"
        }
      ],
      "stateMutability": "view",
      "type": "function"
    },
    {
      "inputs": [
        {
          "internalType": "uint256",
          "name": "loanId",
          "type": "uint256"
        }
      ],
      "name": "makePayment",
      "outputs": [],
      "stateMutability": "payable",
      "type": "function"
    },
    {
      "inputs": [],
      "name": "settings",
      "outputs": [
        {
          "internalType": "contract MortgageSettings",
          "name": "",
          "type": "address"
        }
      ],
      "stateMutability": "view",
      "type": "function"
    },
    {
      "inputs": [
        {
          "internalType": "uint256",
          "name": "loanId",
          "type": "uint256"
        }
      ],
      "name": "startLoan",
      "outputs": [],
      "stateMutability": "payable",
      "type": "function"
    },
    {
      "inputs": [
        {
          "internalType": "uint256",
          "name": "",
          "type": "uint256"
        }
      ],
      "name": "terms",
      "outputs": [
        {
          "internalType": "uint256",
          "name": "downPayment",
          "type": "uint256"
        },
        {
          "internalType": "uint256",
          "name": "loanAmount",
          "type": "uint256"
        },
        {
          "internalType": "uint256",
          "name": "duration",
          "type": "uint256"
        },
        {
          "internalType": "uint256",
          "name": "startTime",
          "type": "uint256"
        },
        {
          "internalType": "uint256",
          "name": "totalRepaid",
          "type": "uint256"
        },
        {
          "internalType": "uint256",
          "name": "interestRate",
          "type": "uint256"
        },
        {
          "internalType": "uint8",
          "name": "extensions",
          "type": "uint8"
        }
      ],
      "stateMutability": "view",
      "type": "function"
    }
  ],
  "bytecode": "0x608060405234801561001057600080fd5b50604051611bfb380380611bfb833981810160405281019061003291906100dc565b80600360006101000a81548173ffffffffffffffffffffffffffffffffffffffff021916908373ffffffffffffffffffffffffffffffffffffffff16021790555050610109565b600080fd5b600073ffffffffffffffffffffffffffffffffffffffff82169050919050565b60006100a98261007e565b9050919050565b6100b98161009e565b81146100c457600080fd5b50565b6000815190506100d6816100b0565b92915050565b6000602082840312156100f2576100f1610079565b5b6000610100848285016100c7565b91505092915050565b611ae3806101186000396000f3fe6080604052600436106100915760003560e01c8063b2f5db0111610059578063b2f5db011461017e578063c0aa0e8a1461019a578063ce63094d146101dd578063e06174e414610208578063e1ec3c681461023357610091565b80634f4cf428146100965780635114cb52146100d357806367bf61c4146100ef5780637ace2ac914610118578063afd765ba14610141575b600080fd5b3480156100a257600080fd5b506100bd60048036038101906100b891906114a2565b610275565b6040516100ca91906114de565b60405180910390f35b6100ed60048036038101906100e891906114a2565b6102fd565b005b3480156100fb57600080fd5b50610116600480360381019061011191906114a2565b6104a9565b005b34801561012457600080fd5b5061013f600480360381019061013a91906114a2565b6107fb565b005b34801561014d57600080fd5b5061016860048036038101906101639190611557565b610936565b60405161017591906114de565b60405180910390f35b610198600480360381019061019391906114a2565b610f91565b005b3480156101a657600080fd5b506101c160048036038101906101bc91906114a2565b61114a565b6040516101d497969594939291906115ee565b60405180910390f35b3480156101e957600080fd5b506101f2611199565b6040516101ff91906114de565b60405180910390f35b34801561021457600080fd5b5061021d61119f565b60405161022a91906116bc565b60405180910390f35b34801561023f57600080fd5b5061025a600480360381019061025591906114a2565b6111c5565b60405161026c9695949392919061175d565b60405180910390f35b60006102f6600160008481526020019081526020016000206040518060e00160405290816000820154815260200160018201548152602001600282015481526020016003820154815260200160048201548152602001600582015481526020016006820160009054906101000a900460ff1660ff1660ff168152505061126e565b9050919050565b6000806000838152602001908152602001600020905060006001600084815260200190815260200160002090506001600481111561033e5761033d6116e6565b5b8260050160009054906101000a900460ff166004811115610362576103616116e6565b5b14806103a357506002600481111561037d5761037c6116e6565b5b8260050160009054906101000a900460ff1660048111156103a1576103a06116e6565b5b145b6103ac57600080fd5b8160010160009054906101000a900473ffffffffffffffffffffffffffffffffffffffff1673ffffffffffffffffffffffffffffffffffffffff163373ffffffffffffffffffffffffffffffffffffffff161461040857600080fd5b3481600401600082825461041c91906117ed565b92505081905550610490816040518060e00160405290816000820154815260200160018201548152602001600282015481526020016003820154815260200160048201548152602001600582015481526020016006820160009054906101000a900460ff1660ff1660ff168152505061126e565b8160040154106104a4576104a3836112de565b5b505050565b600080600083815260200190815260200160002090506000600160008481526020019081526020016000209050806002015481600301546104ea91906117ed565b42116104f557600080fd5b60016004811115610509576105086116e6565b5b8260050160009054906101000a900460ff16600481111561052d5761052c6116e6565b5b148061056e575060026004811115610548576105476116e6565b5b8260050160009054906101000a900460ff16600481111561056c5761056b6116e6565b5b145b61057757600080fd5b60006103e8600360009054906101000a900473ffffffffffffffffffffffffffffffffffffffff1673ffffffffffffffffffffffffffffffffffffffff16634fcc1def6040518163ffffffff1660e01b8152600401602060405180830381865afa1580156105e9573d6000803e3d6000fd5b505050506040513d601f19601f8201168201806040525081019061060d9190611836565b836000015461061c9190611863565b61062691906118d4565b905060048360050160006101000a81548160ff021916908360048111156106505761064f6116e6565b5b02179055508260020160009054906101000a900473ffffffffffffffffffffffffffffffffffffffff1673ffffffffffffffffffffffffffffffffffffffff166323b872dd308560000160009054906101000a900473ffffffffffffffffffffffffffffffffffffffff1686600301546040518463ffffffff1660e01b81526004016106de93929190611905565b600060405180830381600087803b1580156106f857600080fd5b505af115801561070c573d6000803e3d6000fd5b505050508260000160009054906101000a900473ffffffffffffffffffffffffffffffffffffffff1673ffffffffffffffffffffffffffffffffffffffff166108fc829081150290604051600060405180830381858888f1935050505015801561077a573d6000803e3d6000fd5b508260010160009054906101000a900473ffffffffffffffffffffffffffffffffffffffff1673ffffffffffffffffffffffffffffffffffffffff166108fc8284600401546107c9919061193c565b9081150290604051600060405180830381858888f193505050501580156107f4573d6000803e3d6000fd5b5050505050565b6000806000838152602001908152602001600020905060006001600084815260200190815260200160002090506001600481111561083c5761083b6116e6565b5b8260050160009054906101000a900460ff1660048111156108605761085f6116e6565b5b1461086a57600080fd5b60038160060160009054906101000a900460ff1660ff161061088b57600080fd5b6002816001015461089c91906118d4565b816004015410156108ac57600080fd5b62278d008160020160008282546108c391906117ed565b9250508190555080600601600081819054906101000a900460ff16809291906108eb90611970565b91906101000a81548160ff021916908360ff1602179055505060028260050160006101000a81548160ff0219169083600481111561092c5761092b6116e6565b5b0217905550505050565b6000600360009054906101000a900473ffffffffffffffffffffffffffffffffffffffff1673ffffffffffffffffffffffffffffffffffffffff16636a56b359336040518263ffffffff1660e01b81526004016109939190611999565b602060405180830381865afa1580156109b0573d6000803e3d6000fd5b505050506040513d601f19601f820116820180604052508101906109d491906119ec565b6109dd57600080fd5b600360009054906101000a900473ffffffffffffffffffffffffffffffffffffffff1673ffffffffffffffffffffffffffffffffffffffff1663a3b961a16040518163ffffffff1660e01b8152600401602060405180830381865afa158015610a4a573d6000803e3d6000fd5b505050506040513d601f19601f82011682018060405250810190610a6e9190611836565b831015610a7a57600080fd5b600360009054906101000a900473ffffffffffffffffffffffffffffffffffffffff1673ffffffffffffffffffffffffffffffffffffffff16638a8c737a6040518163ffffffff1660e01b8152600401602060405180830381865afa158015610ae7573d6000803e3d6000fd5b505050506040513d601f19601f82011682018060405250810190610b0b9190611836565b831115610b1757600080fd5b600360009054906101000a900473ffffffffffffffffffffffffffffffffffffffff1673ffffffffffffffffffffffffffffffffffffffff1663b6a6d1776040518163ffffffff1660e01b8152600401602060405180830381865afa158015610b84573d6000803e3d6000fd5b505050506040513d601f19601f82011682018060405250810190610ba89190611836565b821015610bb457600080fd5b600360009054906101000a900473ffffffffffffffffffffffffffffffffffffffff1673ffffffffffffffffffffffffffffffffffffffff1663b1724b466040518163ffffffff1660e01b8152600401602060405180830381865afa158015610c21573d6000803e3d6000fd5b505050506040513d601f19601f82011682018060405250810190610c459190611836565b821115610c5157600080fd5b600260008154610c6090611a19565b9190508190559050600060648486610c789190611863565b610c8291906118d4565b90506040518060c001604052803273ffffffffffffffffffffffffffffffffffffffff168152602001600073ffffffffffffffffffffffffffffffffffffffff1681526020018873ffffffffffffffffffffffffffffffffffffffff16815260200187815260200186815260200160006004811115610d0457610d036116e6565b5b81525060008084815260200190815260200160002060008201518160000160006101000a81548173ffffffffffffffffffffffffffffffffffffffff021916908373ffffffffffffffffffffffffffffffffffffffff16021790555060208201518160010160006101000a81548173ffffffffffffffffffffffffffffffffffffffff021916908373ffffffffffffffffffffffffffffffffffffffff16021790555060408201518160020160006101000a81548173ffffffffffffffffffffffffffffffffffffffff021916908373ffffffffffffffffffffffffffffffffffffffff160217905550606082015181600301556080820151816004015560a08201518160050160006101000a81548160ff02191690836004811115610e2d57610e2c6116e6565b5b02179055509050506040518060e001604052808281526020018287610e52919061193c565b81526020018481526020016000815260200160008152602001600360009054906101000a900473ffffffffffffffffffffffffffffffffffffffff1673ffffffffffffffffffffffffffffffffffffffff16630c196a74866040518263ffffffff1660e01b8152600401610ec691906114de565b602060405180830381865afa158015610ee3573d6000803e3d6000fd5b505050506040513d601f19601f82011682018060405250810190610f079190611836565b8152602001600060ff1681525060016000848152602001908152602001600020600082015181600001556020820151816001015560408201518160020155606082015181600301556080820151816004015560a0820151816005015560c08201518160060160006101000a81548160ff021916908360ff1602179055509050505095945050505050565b60008060008381526020019081526020016000209050600060016000848152602001908152602001600020905060006004811115610fd257610fd16116e6565b5b8260050160009054906101000a900460ff166004811115610ff657610ff56116e6565b5b1461100057600080fd5b806000015434101561101157600080fd5b338260010160006101000a81548173ffffffffffffffffffffffffffffffffffffffff021916908373ffffffffffffffffffffffffffffffffffffffff16021790555060018260050160006101000a81548160ff0219169083600481111561107c5761107b6116e6565b5b02179055504281600301819055508160020160009054906101000a900473ffffffffffffffffffffffffffffffffffffffff1673ffffffffffffffffffffffffffffffffffffffff166323b872dd8360000160009054906101000a900473ffffffffffffffffffffffffffffffffffffffff163085600301546040518463ffffffff1660e01b815260040161111393929190611905565b600060405180830381600087803b15801561112d57600080fd5b505af1158015611141573d6000803e3d6000fd5b50505050505050565b60016020528060005260406000206000915090508060000154908060010154908060020154908060030154908060040154908060050154908060060160009054906101000a900460ff16905087565b60025481565b600360009054906101000a900473ffffffffffffffffffffffffffffffffffffffff1681565b60006020528060005260406000206000915090508060000160009054906101000a900473ffffffffffffffffffffffffffffffffffffffff16908060010160009054906101000a900473ffffffffffffffffffffffffffffffffffffffff16908060020160009054906101000a900473ffffffffffffffffffffffffffffffffffffffff16908060030154908060040154908060050160009054906101000a900460ff16905086565b6000640757b12c0062278d008360c0015160ff1661128c9190611a70565b62ffffff1683604001516112a091906117ed565b8360a0015184602001516112b49190611863565b6112be9190611863565b6112c891906118d4565b82602001516112d791906117ed565b9050919050565b60008060008381526020019081526020016000209050600060016000848152602001908152602001600020905060038260050160006101000a81548160ff02191690836004811115611333576113326116e6565b5b02179055508160020160009054906101000a900473ffffffffffffffffffffffffffffffffffffffff1673ffffffffffffffffffffffffffffffffffffffff166323b872dd308460010160009054906101000a900473ffffffffffffffffffffffffffffffffffffffff1685600301546040518463ffffffff1660e01b81526004016113c193929190611905565b600060405180830381600087803b1580156113db57600080fd5b505af11580156113ef573d6000803e3d6000fd5b505050508160000160009054906101000a900473ffffffffffffffffffffffffffffffffffffffff1673ffffffffffffffffffffffffffffffffffffffff166108fc82600401549081150290604051600060405180830381858888f19350505050158015611461573d6000803e3d6000fd5b50505050565b600080fd5b6000819050919050565b61147f8161146c565b811461148a57600080fd5b50565b60008135905061149c81611476565b92915050565b6000602082840312156114b8576114b7611467565b5b60006114c68482850161148d565b91505092915050565b6114d88161146c565b82525050565b60006020820190506114f360008301846114cf565b92915050565b600073ffffffffffffffffffffffffffffffffffffffff82169050919050565b6000611524826114f9565b9050919050565b61153481611519565b811461153f57600080fd5b50565b6000813590506115518161152b565b92915050565b600080600080600060a0868803121561157357611572611467565b5b600061158188828901611542565b95505060206115928882890161148d565b94505060406115a38882890161148d565b93505060606115b48882890161148d565b92505060806115c58882890161148d565b9150509295509295909350565b600060ff82169050919050565b6115e8816115d2565b82525050565b600060e082019050611603600083018a6114cf565b61161060208301896114cf565b61161d60408301886114cf565b61162a60608301876114cf565b61163760808301866114cf565b61164460a08301856114cf565b61165160c08301846115df565b98975050505050505050565b6000819050919050565b600061168261167d611678846114f9565b61165d565b6114f9565b9050919050565b600061169482611667565b9050919050565b60006116a682611689565b9050919050565b6116b68161169b565b82525050565b60006020820190506116d160008301846116ad565b92915050565b6116e081611519565b82525050565b7f4e487b7100000000000000000000000000000000000000000000000000000000600052602160045260246000fd5b60058110611726576117256116e6565b5b50565b600081905061173782611715565b919050565b600061174782611729565b9050919050565b6117578161173c565b82525050565b600060c08201905061177260008301896116d7565b61177f60208301886116d7565b61178c60408301876116d7565b61179960608301866114cf565b6117a660808301856114cf565b6117b360a083018461174e565b979650505050505050565b7f4e487b7100000000000000000000000000000000000000000000000000000000600052601160045260246000fd5b60006117f88261146c565b91506118038361146c565b925082820190508082111561181b5761181a6117be565b5b92915050565b60008151905061183081611476565b92915050565b60006020828403121561184c5761184b611467565b5b600061185a84828501611821565b91505092915050565b600061186e8261146c565b91506118798361146c565b92508282026118878161146c565b9150828204841483151761189e5761189d6117be565b5b5092915050565b7f4e487b7100000000000000000000000000000000000000000000000000000000600052601260045260246000fd5b60006118df8261146c565b91506118ea8361146c565b9250826118fa576118f96118a5565b5b828204905092915050565b600060608201905061191a60008301866116d7565b61192760208301856116d7565b61193460408301846114cf565b949350505050565b60006119478261146c565b91506119528361146c565b925082820390508181111561196a576119696117be565b5b92915050565b600061197b826115d2565b915060ff820361198e5761198d6117be565b5b600182019050919050565b60006020820190506119ae60008301846116d7565b92915050565b60008115159050919050565b6119c9816119b4565b81146119d457600080fd5b50565b6000815190506119e6816119c0565b92915050565b600060208284031215611a0257611a01611467565b5b6000611a10848285016119d7565b91505092915050565b6000611a248261146c565b91507fffffffffffffffffffffffffffffffffffffffffffffffffffffffffffffffff8203611a5657611a556117be565b5b600182019050919050565b600062ffffff82169050919050565b6000611a7b82611a61565b9150611a8683611a61565b9250828202611a9481611a61565b9150808214611aa657611aa56117be565b5b509291505056fea2646970667358221220d6fe6cb342546535a33f5ff986360277b74235ff30472c4b2373917cd8fb159e64736f6c634300081c0033",
  "linkReferences": {},
  "deployedLinkReferences": {}
}