{
  "_format": "hh-sol-artifact-1",
  "contractName": "MortgageSettings",
  "sourceName": "contracts/mortgages.sol",
  "abi": [
    {
      "inputs": [],
      "stateMutability": "nonpayable",
      "type": "constructor"
    },
    {
      "inputs": [],
      "name": "DEFAULT_FEE",
      "outputs": [
        {
          "internalType": "uint256",
          "name": "",
          "type": "uint256"
        }
      ],
      "stateMutability": "view",
      "type": "function"
    },
    {
      "inputs": [],
      "name": "MAX_DOWNPAYMENT",
      "outputs": [
        {
          "internalType": "uint256",
          "name": "",
          "type": "uint256"
        }
      ],
      "stateMutability": "view",
      "type": "function"
    },
    {
      "inputs": [],
      "name": "MAX_DURATION",
      "outputs": [
        {
          "internalType": "uint256",
          "name": "",
          "type": "uint256"
        }
      ],
      "stateMutability": "view",
      "type": "function"
    },
    {
      "inputs": [],
      "name": "MIN_DOWNPAYMENT",
      "outputs": [
        {
          "internalType": "uint256",
          "name": "",
          "type": "uint256"
        }
      ],
      "stateMutability": "view",
      "type": "function"
    },
    {
      "inputs": [],
      "name": "MIN_DURATION",
      "outputs": [
        {
          "internalType": "uint256",
          "name": "",
          "type": "uint256"
        }
      ],
      "stateMutability": "view",
      "type": "function"
    },
    {
      "inputs": [
        {
          "internalType": "uint256",
          "name": "duration",
          "type": "uint256"
        }
      ],
      "name": "getInterestRate",
      "outputs": [
        {
          "internalType": "uint256",
          "name": "",
          "type": "uint256"
        }
      ],
      "stateMutability": "pure",
      "type": "function"
    },
    {
      "inputs": [
        {
          "internalType": "address",
          "name": "",
          "type": "address"
        }
      ],
      "name": "marketplaces",
      "outputs": [
        {
          "internalType": "bool",
          "name": "",
          "type": "bool"
        }
      ],
      "stateMutability": "view",
      "type": "function"
    },
    {
      "inputs": [],
      "name": "owner",
      "outputs": [
        {
          "internalType": "address",
          "name": "",
          "type": "address"
        }
      ],
      "stateMutability": "view",
      "type": "function"
    },
    {
      "inputs": [
        {
          "internalType": "address",
          "name": "market",
          "type": "address"
        },
        {
          "internalType": "bool",
          "name": "status",
          "type": "bool"
        }
      ],
      "name": "setMarketplace",
      "outputs": [],
      "stateMutability": "nonpayable",
      "type": "function"
    }
  ],
  "bytecode": "0x6080604052348015600f57600080fd5b50336000806101000a81548173ffffffffffffffffffffffffffffffffffffffff021916908373ffffffffffffffffffffffffffffffffffffffff1602179055506105318061005f6000396000f3fe608060405234801561001057600080fd5b50600436106100935760003560e01c80638a8c737a116100665780638a8c737a146101325780638da5cb5b14610150578063a3b961a11461016e578063b1724b461461018c578063b6a6d177146101aa57610093565b80630c196a74146100985780634fcc1def146100c85780636a56b359146100e65780637419e77a14610116575b600080fd5b6100b260048036038101906100ad919061034d565b6101c8565b6040516100bf9190610389565b60405180910390f35b6100d06101fc565b6040516100dd9190610389565b60405180910390f35b61010060048036038101906100fb9190610402565b610201565b60405161010d919061044a565b60405180910390f35b610130600480360381019061012b9190610491565b610221565b005b61013a6102d4565b6040516101479190610389565b60405180910390f35b6101586102d9565b60405161016591906104e0565b60405180910390f35b6101766102fd565b6040516101839190610389565b60405180910390f35b610194610302565b6040516101a19190610389565b60405180910390f35b6101b261030a565b6040516101bf9190610389565b60405180910390f35b60006301e1338082116101de57601990506101f7565b630966018082116101f257602d90506101f7565b604690505b919050565b601981565b60016020528060005260406000206000915054906101000a900460ff1681565b60008054906101000a900473ffffffffffffffffffffffffffffffffffffffff1673ffffffffffffffffffffffffffffffffffffffff163373ffffffffffffffffffffffffffffffffffffffff161461027957600080fd5b80600160008473ffffffffffffffffffffffffffffffffffffffff1673ffffffffffffffffffffffffffffffffffffffff16815260200190815260200160002060006101000a81548160ff0219169083151502179055505050565b605581565b60008054906101000a900473ffffffffffffffffffffffffffffffffffffffff1681565b600381565b631c32048081565b6301e1338081565b600080fd5b6000819050919050565b61032a81610317565b811461033557600080fd5b50565b60008135905061034781610321565b92915050565b60006020828403121561036357610362610312565b5b600061037184828501610338565b91505092915050565b61038381610317565b82525050565b600060208201905061039e600083018461037a565b92915050565b600073ffffffffffffffffffffffffffffffffffffffff82169050919050565b60006103cf826103a4565b9050919050565b6103df816103c4565b81146103ea57600080fd5b50565b6000813590506103fc816103d6565b92915050565b60006020828403121561041857610417610312565b5b6000610426848285016103ed565b91505092915050565b60008115159050919050565b6104448161042f565b82525050565b600060208201905061045f600083018461043b565b92915050565b61046e8161042f565b811461047957600080fd5b50565b60008135905061048b81610465565b92915050565b600080604083850312156104a8576104a7610312565b5b60006104b6858286016103ed565b92505060206104c78582860161047c565b9150509250929050565b6104da816103c4565b82525050565b60006020820190506104f560008301846104d1565b9291505056fea264697066735822122080f087f3d8e1b688e1271285f490b2bbf7010115a82c6fdeeeba954e12dee8a364736f6c634300081c0033",
  "linkReferences": {},
  "deployedLinkReferences": {}
}